{
  "contractName": "NFTMarketPlace",
  "abi": [
    {
      "inputs": [],
      "stateMutability": "nonpayable",
      "type": "constructor"
    },
    {
      "anonymous": false,
      "inputs": [
        {
          "indexed": false,
          "internalType": "uint256",
          "name": "id",
          "type": "uint256"
        },
        {
          "indexed": false,
          "internalType": "string",
          "name": "name",
          "type": "string"
        },
        {
          "indexed": false,
          "internalType": "string",
          "name": "content",
          "type": "string"
        },
        {
          "indexed": false,
          "internalType": "string",
          "name": "image",
          "type": "string"
        },
        {
          "indexed": false,
          "internalType": "uint256",
          "name": "price",
          "type": "uint256"
        },
        {
          "indexed": false,
          "internalType": "address",
          "name": "owner",
          "type": "address"
        },
        {
          "indexed": false,
          "internalType": "address",
          "name": "buyer",
          "type": "address"
        },
        {
          "indexed": false,
          "internalType": "bool",
          "name": "locked",
          "type": "bool"
        }
      ],
      "name": "_UploadNftEvent_",
      "type": "event"
    },
    {
      "inputs": [],
      "name": "getAddressOwner",
      "outputs": [
        {
          "internalType": "address",
          "name": "",
          "type": "address"
        }
      ],
      "stateMutability": "view",
      "type": "function",
      "constant": true
    },
    {
      "inputs": [],
      "name": "getContractAddress",
      "outputs": [
        {
          "internalType": "address",
          "name": "",
          "type": "address"
        }
      ],
      "stateMutability": "view",
      "type": "function",
      "constant": true
    },
    {
      "inputs": [],
      "name": "getContractBalance",
      "outputs": [
        {
          "internalType": "uint256",
          "name": "",
          "type": "uint256"
        }
      ],
      "stateMutability": "view",
      "type": "function",
      "constant": true
    },
    {
      "inputs": [],
      "name": "getContractWithdraw",
      "outputs": [],
      "stateMutability": "payable",
      "type": "function",
      "payable": true
    },
    {
      "inputs": [],
      "name": "getAllCounter",
      "outputs": [
        {
          "internalType": "uint256",
          "name": "",
          "type": "uint256"
        }
      ],
      "stateMutability": "view",
      "type": "function",
      "constant": true
    },
    {
      "inputs": [
        {
          "internalType": "string",
          "name": "name_",
          "type": "string"
        },
        {
          "internalType": "string",
          "name": "content_",
          "type": "string"
        },
        {
          "internalType": "uint256",
          "name": "price_",
          "type": "uint256"
        },
        {
          "internalType": "string",
          "name": "image_",
          "type": "string"
        },
        {
          "internalType": "bool",
          "name": "locked_",
          "type": "bool"
        }
      ],
      "name": "setUploadItemsNft",
      "outputs": [],
      "stateMutability": "nonpayable",
      "type": "function"
    },
    {
      "inputs": [
        {
          "internalType": "uint256",
          "name": "id_",
          "type": "uint256"
        }
      ],
      "name": "setPurchesedItem",
      "outputs": [],
      "stateMutability": "payable",
      "type": "function",
      "payable": true
    },
    {
      "inputs": [],
      "name": "getLengthOwnerData",
      "outputs": [
        {
          "internalType": "uint256",
          "name": "",
          "type": "uint256"
        }
      ],
      "stateMutability": "view",
      "type": "function",
      "constant": true
    },
    {
      "inputs": [],
      "name": "getLengthSoldData",
      "outputs": [
        {
          "internalType": "uint256",
          "name": "",
          "type": "uint256"
        }
      ],
      "stateMutability": "view",
      "type": "function",
      "constant": true
    },
    {
      "inputs": [
        {
          "internalType": "uint256",
          "name": "id_",
          "type": "uint256"
        }
      ],
      "name": "getLengthSold",
      "outputs": [
        {
          "internalType": "uint256",
          "name": "",
          "type": "uint256"
        }
      ],
      "stateMutability": "view",
      "type": "function",
      "constant": true
    },
    {
      "inputs": [
        {
          "internalType": "uint256",
          "name": "id_",
          "type": "uint256"
        }
      ],
      "name": "setLockedTrue",
      "outputs": [],
      "stateMutability": "nonpayable",
      "type": "function"
    },
    {
      "inputs": [
        {
          "internalType": "uint256",
          "name": "id_",
          "type": "uint256"
        }
      ],
      "name": "setLockedFalse",
      "outputs": [],
      "stateMutability": "nonpayable",
      "type": "function"
    },
    {
      "inputs": [
        {
          "internalType": "uint256",
          "name": "index_",
          "type": "uint256"
        }
      ],
      "name": "getAllItemByIndex",
      "outputs": [
        {
          "components": [
            {
              "internalType": "uint256",
              "name": "id",
              "type": "uint256"
            },
            {
              "internalType": "string",
              "name": "name",
              "type": "string"
            },
            {
              "internalType": "string",
              "name": "content",
              "type": "string"
            },
            {
              "internalType": "string",
              "name": "image",
              "type": "string"
            },
            {
              "internalType": "uint256",
              "name": "price",
              "type": "uint256"
            },
            {
              "internalType": "address",
              "name": "owner",
              "type": "address"
            },
            {
              "internalType": "address",
              "name": "buyer",
              "type": "address"
            },
            {
              "internalType": "bool",
              "name": "locked",
              "type": "bool"
            }
          ],
          "internalType": "struct NFTMarketPlace._UploadNftStruct_",
          "name": "",
          "type": "tuple"
        }
      ],
      "stateMutability": "view",
      "type": "function",
      "constant": true
    },
    {
      "inputs": [],
      "name": "getAllItems",
      "outputs": [
        {
          "components": [
            {
              "internalType": "uint256",
              "name": "id",
              "type": "uint256"
            },
            {
              "internalType": "string",
              "name": "name",
              "type": "string"
            },
            {
              "internalType": "string",
              "name": "content",
              "type": "string"
            },
            {
              "internalType": "string",
              "name": "image",
              "type": "string"
            },
            {
              "internalType": "uint256",
              "name": "price",
              "type": "uint256"
            },
            {
              "internalType": "address",
              "name": "owner",
              "type": "address"
            },
            {
              "internalType": "address",
              "name": "buyer",
              "type": "address"
            },
            {
              "internalType": "bool",
              "name": "locked",
              "type": "bool"
            }
          ],
          "internalType": "struct NFTMarketPlace._UploadNftStruct_[]",
          "name": "",
          "type": "tuple[]"
        }
      ],
      "stateMutability": "view",
      "type": "function",
      "constant": true
    },
    {
      "inputs": [],
      "name": "getAllYourItems",
      "outputs": [
        {
          "components": [
            {
              "internalType": "uint256",
              "name": "id",
              "type": "uint256"
            },
            {
              "internalType": "string",
              "name": "name",
              "type": "string"
            },
            {
              "internalType": "string",
              "name": "content",
              "type": "string"
            },
            {
              "internalType": "string",
              "name": "image",
              "type": "string"
            },
            {
              "internalType": "uint256",
              "name": "price",
              "type": "uint256"
            },
            {
              "internalType": "address",
              "name": "owner",
              "type": "address"
            },
            {
              "internalType": "address",
              "name": "buyer",
              "type": "address"
            },
            {
              "internalType": "bool",
              "name": "locked",
              "type": "bool"
            }
          ],
          "internalType": "struct NFTMarketPlace._UploadNftStruct_[]",
          "name": "",
          "type": "tuple[]"
        }
      ],
      "stateMutability": "view",
      "type": "function",
      "constant": true
    }
  ],
  "bytecode": "0x608060405230600260006101000a81548173ffffffffffffffffffffffffffffffffffffffff021916908373ffffffffffffffffffffffffffffffffffffffff16021790555034801561005157600080fd5b5033600160006101000a81548173ffffffffffffffffffffffffffffffffffffffff021916908373ffffffffffffffffffffffffffffffffffffffff160217905550612c30806100a26000396000f3fe6080604052600436106100e85760003560e01c80636f9fb98a1161008a578063b627e20f11610059578063b627e20f146102a2578063d0855cab146102cd578063ec1d450d146102f8578063f55ee16814610323576100e8565b80636f9fb98a1461021b57806376c0cb4a14610246578063a81719b11461026f578063b19aa3e814610279576100e8565b80633f23a1d0116100c65780633f23a1d0146101715780634621bde11461019c5780634ba1d6aa146101c557806353223b4f146101f0576100e8565b806321f2689f146100ed57806332a2c5d014610109578063374d2fbd14610134575b600080fd5b61010760048036038101906101029190611d2f565b610360565b005b34801561011557600080fd5b5061011e610825565b60405161012b9190611d9d565b60405180910390f35b34801561014057600080fd5b5061015b60048036038101906101569190611d2f565b61084f565b6040516101689190611dc7565b60405180910390f35b34801561017d57600080fd5b5061018661086f565b6040516101939190611dc7565b60405180910390f35b3480156101a857600080fd5b506101c360048036038101906101be9190611d2f565b6108b9565b005b3480156101d157600080fd5b506101da6109f9565b6040516101e79190612034565b60405180910390f35b3480156101fc57600080fd5b50610205610df7565b6040516102129190612034565b60405180910390f35b34801561022757600080fd5b5061023061122f565b60405161023d9190611dc7565b60405180910390f35b34801561025257600080fd5b5061026d600480360381019061026891906121b7565b611237565b005b6102776115f5565b005b34801561028557600080fd5b506102a0600480360381019061029b9190611d2f565b6116ce565b005b3480156102ae57600080fd5b506102b761180e565b6040516102c49190611d9d565b60405180910390f35b3480156102d957600080fd5b506102e2611838565b6040516102ef9190611dc7565b60405180910390f35b34801561030457600080fd5b5061030d611849565b60405161031a9190611dc7565b60405180910390f35b34801561032f57600080fd5b5061034a60048036038101906103459190611d2f565b611893565b6040516103579190612344565b60405180910390f35b60006003600083815260200190815260200160002090506000339050600073ffffffffffffffffffffffffffffffffffffffff168173ffffffffffffffffffffffffffffffffffffffff16036103eb576040517f08c379a00000000000000000000000000000000000000000000000000000000081526004016103e2906123c3565b60405180910390fd5b8160050160009054906101000a900473ffffffffffffffffffffffffffffffffffffffff1673ffffffffffffffffffffffffffffffffffffffff168173ffffffffffffffffffffffffffffffffffffffff160361047d576040517f08c379a00000000000000000000000000000000000000000000000000000000081526004016104749061242f565b60405180910390fd5b6104876000611bab565b8311158015610497575060008310155b6104d6576040517f08c379a00000000000000000000000000000000000000000000000000000000081526004016104cd9061249b565b60405180910390fd5b8160040154341461051c576040517f08c379a000000000000000000000000000000000000000000000000000000000815260040161051390612507565b60405180910390fd5b600115158260060160149054906101000a900460ff16151514610574576040517f08c379a000000000000000000000000000000000000000000000000000000000815260040161056b90612573565b60405180910390fd5b60006064605f3461058591906125c2565b61058f919061264b565b90508260050160009054906101000a900473ffffffffffffffffffffffffffffffffffffffff1673ffffffffffffffffffffffffffffffffffffffff166108fc829081150290604051600060405180830381858888f193505050501580156105fb573d6000803e3d6000fd5b50600760008460000154815260200190815260200160002083600001549080600181540180825580915050600190039060005260206000200160009091909190915055818360060160006101000a81548173ffffffffffffffffffffffffffffffffffffffff021916908373ffffffffffffffffffffffffffffffffffffffff16021790555060008360060160146101000a81548160ff021916908315150217905550600560008373ffffffffffffffffffffffffffffffffffffffff1673ffffffffffffffffffffffffffffffffffffffff16815260200190815260200160002083600001549080600181540180825580915050600190039060005260206000200160009091909190915055600560008460050160009054906101000a900473ffffffffffffffffffffffffffffffffffffffff1673ffffffffffffffffffffffffffffffffffffffff1673ffffffffffffffffffffffffffffffffffffffff16815260200190815260200160002080548061077b5761077a61267c565b5b60019003818190600052602060002001600090559055600660008460050160009054906101000a900473ffffffffffffffffffffffffffffffffffffffff1673ffffffffffffffffffffffffffffffffffffffff1673ffffffffffffffffffffffffffffffffffffffff1681526020019081526020016000208360000154908060018154018082558091505060019003906000526020600020016000909190919091505550505050565b6000600260009054906101000a900473ffffffffffffffffffffffffffffffffffffffff16905090565b600060076000838152602001908152602001600020805490509050919050565b6000600660003373ffffffffffffffffffffffffffffffffffffffff1673ffffffffffffffffffffffffffffffffffffffff16815260200190815260200160002080549050905090565b3373ffffffffffffffffffffffffffffffffffffffff166003600083815260200190815260200160002060060160009054906101000a900473ffffffffffffffffffffffffffffffffffffffff1673ffffffffffffffffffffffffffffffffffffffff161461095d576040517f08c379a0000000000000000000000000000000000000000000000000000000008152600401610954906126f7565b60405180910390fd5b600115156003600083815260200190815260200160002060060160149054906101000a900460ff161515036109c7576040517f08c379a00000000000000000000000000000000000000000000000000000000081526004016109be90612763565b60405180910390fd5b60016003600083815260200190815260200160002060060160146101000a81548160ff02191690831515021790555050565b60606000610a076000611bab565b9050600080600560003373ffffffffffffffffffffffffffffffffffffffff1673ffffffffffffffffffffffffffffffffffffffff1681526020019081526020016000208054905067ffffffffffffffff811115610a6857610a67612060565b5b604051908082528060200260200182016040528015610aa157816020015b610a8e611bcf565b815260200190600190039081610a865790505b50905060005b83811015610ded576001151560036000600184610ac49190612783565b815260200190815260200160002060060160149054906101000a900460ff16151503610dda57600060036000600184610afd9190612783565b81526020019081526020016000209050806040518061010001604052908160008201548152602001600182018054610b3490612808565b80601f0160208091040260200160405190810160405280929190818152602001828054610b6090612808565b8015610bad5780601f10610b8257610100808354040283529160200191610bad565b820191906000526020600020905b815481529060010190602001808311610b9057829003601f168201915b50505050508152602001600282018054610bc690612808565b80601f0160208091040260200160405190810160405280929190818152602001828054610bf290612808565b8015610c3f5780601f10610c1457610100808354040283529160200191610c3f565b820191906000526020600020905b815481529060010190602001808311610c2257829003601f168201915b50505050508152602001600382018054610c5890612808565b80601f0160208091040260200160405190810160405280929190818152602001828054610c8490612808565b8015610cd15780601f10610ca657610100808354040283529160200191610cd1565b820191906000526020600020905b815481529060010190602001808311610cb457829003601f168201915b50505050508152602001600482015481526020016005820160009054906101000a900473ffffffffffffffffffffffffffffffffffffffff1673ffffffffffffffffffffffffffffffffffffffff1673ffffffffffffffffffffffffffffffffffffffff1681526020016006820160009054906101000a900473ffffffffffffffffffffffffffffffffffffffff1673ffffffffffffffffffffffffffffffffffffffff1673ffffffffffffffffffffffffffffffffffffffff1681526020016006820160149054906101000a900460ff161515151581525050838581518110610dbe57610dbd612839565b5b6020026020010181905250600184610dd69190612783565b9350505b8080610de590612868565b915050610aa7565b5080935050505090565b60606000610e056000611bab565b9050600080600560003373ffffffffffffffffffffffffffffffffffffffff1673ffffffffffffffffffffffffffffffffffffffff1681526020019081526020016000208054905067ffffffffffffffff811115610e6657610e65612060565b5b604051908082528060200260200182016040528015610e9f57816020015b610e8c611bcf565b815260200190600190039081610e845790505b50905060005b83811015611225573373ffffffffffffffffffffffffffffffffffffffff1660036000600184610ed59190612783565b815260200190815260200160002060060160009054906101000a900473ffffffffffffffffffffffffffffffffffffffff1673ffffffffffffffffffffffffffffffffffffffff160361121257600060036000600184610f359190612783565b81526020019081526020016000209050806040518061010001604052908160008201548152602001600182018054610f6c90612808565b80601f0160208091040260200160405190810160405280929190818152602001828054610f9890612808565b8015610fe55780601f10610fba57610100808354040283529160200191610fe5565b820191906000526020600020905b815481529060010190602001808311610fc857829003601f168201915b50505050508152602001600282018054610ffe90612808565b80601f016020809104026020016040519081016040528092919081815260200182805461102a90612808565b80156110775780601f1061104c57610100808354040283529160200191611077565b820191906000526020600020905b81548152906001019060200180831161105a57829003601f168201915b5050505050815260200160038201805461109090612808565b80601f01602080910402602001604051908101604052809291908181526020018280546110bc90612808565b80156111095780601f106110de57610100808354040283529160200191611109565b820191906000526020600020905b8154815290600101906020018083116110ec57829003601f168201915b50505050508152602001600482015481526020016005820160009054906101000a900473ffffffffffffffffffffffffffffffffffffffff1673ffffffffffffffffffffffffffffffffffffffff1673ffffffffffffffffffffffffffffffffffffffff1681526020016006820160009054906101000a900473ffffffffffffffffffffffffffffffffffffffff1673ffffffffffffffffffffffffffffffffffffffff1673ffffffffffffffffffffffffffffffffffffffff1681526020016006820160149054906101000a900460ff1615151515815250508385815181106111f6576111f5612839565b5b602002602001018190525060018461120e9190612783565b9350505b808061121d90612868565b915050610ea5565b5080935050505090565b600047905090565b6000339050600073ffffffffffffffffffffffffffffffffffffffff168173ffffffffffffffffffffffffffffffffffffffff16036112ab576040517f08c379a00000000000000000000000000000000000000000000000000000000081526004016112a2906128fc565b60405180910390fd5b6004836040516112bb9190612958565b908152602001604051809103902060009054906101000a900460ff1615611317576040517f08c379a000000000000000000000000000000000000000000000000000000000815260040161130e906129bb565b60405180910390fd5b6103e8841161135b576040517f08c379a000000000000000000000000000000000000000000000000000000000815260040161135290612a27565b60405180910390fd5b6113656000611bb9565b60006113716000611bab565b90506040518061010001604052808281526020018881526020018781526020018581526020018681526020018373ffffffffffffffffffffffffffffffffffffffff1681526020018373ffffffffffffffffffffffffffffffffffffffff16815260200184151581525060036000838152602001908152602001600020600082015181600001556020820151816001019080519060200190611414929190611c42565b506040820151816002019080519060200190611431929190611c42565b50606082015181600301908051906020019061144e929190611c42565b506080820151816004015560a08201518160050160006101000a81548173ffffffffffffffffffffffffffffffffffffffff021916908373ffffffffffffffffffffffffffffffffffffffff16021790555060c08201518160060160006101000a81548173ffffffffffffffffffffffffffffffffffffffff021916908373ffffffffffffffffffffffffffffffffffffffff16021790555060e08201518160060160146101000a81548160ff021916908315150217905550905050600560003373ffffffffffffffffffffffffffffffffffffffff1673ffffffffffffffffffffffffffffffffffffffff16815260200190815260200160002081908060018154018082558091505060019003906000526020600020016000909190919091505560016004856040516115829190612958565b908152602001604051809103902060006101000a81548160ff0219169083151502179055507fdad5113f4ac31e7d36dc21e0864a7f11553b26077989484b56a3f632f0f3021e818888878987888a6040516115e4989796959493929190612a8f565b60405180910390a150505050505050565b600160009054906101000a900473ffffffffffffffffffffffffffffffffffffffff1673ffffffffffffffffffffffffffffffffffffffff163373ffffffffffffffffffffffffffffffffffffffff1614611685576040517f08c379a000000000000000000000000000000000000000000000000000000000815260040161167c90612b6e565b60405180910390fd5b3373ffffffffffffffffffffffffffffffffffffffff166108fc479081150290604051600060405180830381858888f193505050501580156116cb573d6000803e3d6000fd5b50565b3373ffffffffffffffffffffffffffffffffffffffff166003600083815260200190815260200160002060060160009054906101000a900473ffffffffffffffffffffffffffffffffffffffff1673ffffffffffffffffffffffffffffffffffffffff1614611772576040517f08c379a0000000000000000000000000000000000000000000000000000000008152600401611769906126f7565b60405180910390fd5b600115156003600083815260200190815260200160002060060160149054906101000a900460ff161515146117dc576040517f08c379a00000000000000000000000000000000000000000000000000000000081526004016117d390612bda565b60405180910390fd5b60006003600083815260200190815260200160002060060160146101000a81548160ff02191690831515021790555050565b6000600160009054906101000a900473ffffffffffffffffffffffffffffffffffffffff16905090565b60006118446000611bab565b905090565b6000600560003373ffffffffffffffffffffffffffffffffffffffff1673ffffffffffffffffffffffffffffffffffffffff16815260200190815260200160002080549050905090565b61189b611bcf565b6118a56000611bab565b82111580156118b5575060008210155b6118f4576040517f08c379a00000000000000000000000000000000000000000000000000000000081526004016118eb9061249b565b60405180910390fd5b60036000838152602001908152602001600020604051806101000160405290816000820154815260200160018201805461192d90612808565b80601f016020809104026020016040519081016040528092919081815260200182805461195990612808565b80156119a65780601f1061197b576101008083540402835291602001916119a6565b820191906000526020600020905b81548152906001019060200180831161198957829003601f168201915b505050505081526020016002820180546119bf90612808565b80601f01602080910402602001604051908101604052809291908181526020018280546119eb90612808565b8015611a385780601f10611a0d57610100808354040283529160200191611a38565b820191906000526020600020905b815481529060010190602001808311611a1b57829003601f168201915b50505050508152602001600382018054611a5190612808565b80601f0160208091040260200160405190810160405280929190818152602001828054611a7d90612808565b8015611aca5780601f10611a9f57610100808354040283529160200191611aca565b820191906000526020600020905b815481529060010190602001808311611aad57829003601f168201915b50505050508152602001600482015481526020016005820160009054906101000a900473ffffffffffffffffffffffffffffffffffffffff1673ffffffffffffffffffffffffffffffffffffffff1673ffffffffffffffffffffffffffffffffffffffff1681526020016006820160009054906101000a900473ffffffffffffffffffffffffffffffffffffffff1673ffffffffffffffffffffffffffffffffffffffff1673ffffffffffffffffffffffffffffffffffffffff1681526020016006820160149054906101000a900460ff1615151515815250509050919050565b600081600001549050919050565b6001816000016000828254019250508190555050565b6040518061010001604052806000815260200160608152602001606081526020016060815260200160008152602001600073ffffffffffffffffffffffffffffffffffffffff168152602001600073ffffffffffffffffffffffffffffffffffffffff1681526020016000151581525090565b828054611c4e90612808565b90600052602060002090601f016020900481019282611c705760008555611cb7565b82601f10611c8957805160ff1916838001178555611cb7565b82800160010185558215611cb7579182015b82811115611cb6578251825591602001919060010190611c9b565b5b509050611cc49190611cc8565b5090565b5b80821115611ce1576000816000905550600101611cc9565b5090565b6000604051905090565b600080fd5b600080fd5b6000819050919050565b611d0c81611cf9565b8114611d1757600080fd5b50565b600081359050611d2981611d03565b92915050565b600060208284031215611d4557611d44611cef565b5b6000611d5384828501611d1a565b91505092915050565b600073ffffffffffffffffffffffffffffffffffffffff82169050919050565b6000611d8782611d5c565b9050919050565b611d9781611d7c565b82525050565b6000602082019050611db26000830184611d8e565b92915050565b611dc181611cf9565b82525050565b6000602082019050611ddc6000830184611db8565b92915050565b600081519050919050565b600082825260208201905092915050565b6000819050602082019050919050565b611e1781611cf9565b82525050565b600081519050919050565b600082825260208201905092915050565b60005b83811015611e57578082015181840152602081019050611e3c565b83811115611e66576000848401525b50505050565b6000601f19601f8301169050919050565b6000611e8882611e1d565b611e928185611e28565b9350611ea2818560208601611e39565b611eab81611e6c565b840191505092915050565b611ebf81611d7c565b82525050565b60008115159050919050565b611eda81611ec5565b82525050565b600061010083016000830151611ef96000860182611e0e565b5060208301518482036020860152611f118282611e7d565b91505060408301518482036040860152611f2b8282611e7d565b91505060608301518482036060860152611f458282611e7d565b9150506080830151611f5a6080860182611e0e565b5060a0830151611f6d60a0860182611eb6565b5060c0830151611f8060c0860182611eb6565b5060e0830151611f9360e0860182611ed1565b508091505092915050565b6000611faa8383611ee0565b905092915050565b6000602082019050919050565b6000611fca82611de2565b611fd48185611ded565b935083602082028501611fe685611dfe565b8060005b8581101561202257848403895281516120038582611f9e565b945061200e83611fb2565b925060208a01995050600181019050611fea565b50829750879550505050505092915050565b6000602082019050818103600083015261204e8184611fbf565b905092915050565b600080fd5b600080fd5b7f4e487b7100000000000000000000000000000000000000000000000000000000600052604160045260246000fd5b61209882611e6c565b810181811067ffffffffffffffff821117156120b7576120b6612060565b5b80604052505050565b60006120ca611ce5565b90506120d6828261208f565b919050565b600067ffffffffffffffff8211156120f6576120f5612060565b5b6120ff82611e6c565b9050602081019050919050565b82818337600083830152505050565b600061212e612129846120db565b6120c0565b90508281526020810184848401111561214a5761214961205b565b5b61215584828561210c565b509392505050565b600082601f83011261217257612171612056565b5b813561218284826020860161211b565b91505092915050565b61219481611ec5565b811461219f57600080fd5b50565b6000813590506121b18161218b565b92915050565b600080600080600060a086880312156121d3576121d2611cef565b5b600086013567ffffffffffffffff8111156121f1576121f0611cf4565b5b6121fd8882890161215d565b955050602086013567ffffffffffffffff81111561221e5761221d611cf4565b5b61222a8882890161215d565b945050604061223b88828901611d1a565b935050606086013567ffffffffffffffff81111561225c5761225b611cf4565b5b6122688882890161215d565b9250506080612279888289016121a2565b9150509295509295909350565b60006101008301600083015161229f6000860182611e0e565b50602083015184820360208601526122b78282611e7d565b915050604083015184820360408601526122d18282611e7d565b915050606083015184820360608601526122eb8282611e7d565b91505060808301516123006080860182611e0e565b5060a083015161231360a0860182611eb6565b5060c083015161232660c0860182611eb6565b5060e083015161233960e0860182611ed1565b508091505092915050565b6000602082019050818103600083015261235e8184612286565b905092915050565b600082825260208201905092915050565b7f4e6f416464726573730000000000000000000000000000000000000000000000600082015250565b60006123ad600983612366565b91506123b882612377565b602082019050919050565b600060208201905081810360008301526123dc816123a0565b9050919050565b7f596f7520617265204f776e657200000000000000000000000000000000000000600082015250565b6000612419600d83612366565b9150612424826123e3565b602082019050919050565b600060208201905081810360008301526124488161240c565b9050919050565b7f636865636b20796f75722043757272656e74204974656d000000000000000000600082015250565b6000612485601783612366565b91506124908261244f565b602082019050919050565b600060208201905081810360008301526124b481612478565b9050919050565b7f596f75722056616c7565206973206e6f7420457175616c205072696365000000600082015250565b60006124f1601d83612366565b91506124fc826124bb565b602082019050919050565b60006020820190508181036000830152612520816124e4565b9050919050565b7f596f752043616e27742062757920746869732050726f64756374000000000000600082015250565b600061255d601a83612366565b915061256882612527565b602082019050919050565b6000602082019050818103600083015261258c81612550565b9050919050565b7f4e487b7100000000000000000000000000000000000000000000000000000000600052601160045260246000fd5b60006125cd82611cf9565b91506125d883611cf9565b9250817fffffffffffffffffffffffffffffffffffffffffffffffffffffffffffffffff048311821515161561261157612610612593565b5b828202905092915050565b7f4e487b7100000000000000000000000000000000000000000000000000000000600052601260045260246000fd5b600061265682611cf9565b915061266183611cf9565b9250826126715761267061261c565b5b828204905092915050565b7f4e487b7100000000000000000000000000000000000000000000000000000000600052603160045260246000fd5b7f596f7520617265206e6f74204f776e6572000000000000000000000000000000600082015250565b60006126e1601183612366565b91506126ec826126ab565b602082019050919050565b60006020820190508181036000830152612710816126d4565b9050919050565b7f596f75722056616c756520697320547275650000000000000000000000000000600082015250565b600061274d601283612366565b915061275882612717565b602082019050919050565b6000602082019050818103600083015261277c81612740565b9050919050565b600061278e82611cf9565b915061279983611cf9565b9250827fffffffffffffffffffffffffffffffffffffffffffffffffffffffffffffffff038211156127ce576127cd612593565b5b828201905092915050565b7f4e487b7100000000000000000000000000000000000000000000000000000000600052602260045260246000fd5b6000600282049050600182168061282057607f821691505b602082108103612833576128326127d9565b5b50919050565b7f4e487b7100000000000000000000000000000000000000000000000000000000600052603260045260246000fd5b600061287382611cf9565b91507fffffffffffffffffffffffffffffffffffffffffffffffffffffffffffffffff82036128a5576128a4612593565b5b600182019050919050565b7f636865636b20796f757220416464726573730000000000000000000000000000600082015250565b60006128e6601283612366565b91506128f1826128b0565b602082019050919050565b60006020820190508181036000830152612915816128d9565b9050919050565b600081905092915050565b600061293282611e1d565b61293c818561291c565b935061294c818560208601611e39565b80840191505092915050565b60006129648284612927565b915081905092915050565b7f5468697320496d61676520416c72656164792045786973747300000000000000600082015250565b60006129a5601983612366565b91506129b08261296f565b602082019050919050565b600060208201905081810360008301526129d481612998565b9050919050565b7f4e6f204d6f6e6579000000000000000000000000000000000000000000000000600082015250565b6000612a11600883612366565b9150612a1c826129db565b602082019050919050565b60006020820190508181036000830152612a4081612a04565b9050919050565b6000612a5282611e1d565b612a5c8185612366565b9350612a6c818560208601611e39565b612a7581611e6c565b840191505092915050565b612a8981611ec5565b82525050565b600061010082019050612aa5600083018b611db8565b8181036020830152612ab7818a612a47565b90508181036040830152612acb8189612a47565b90508181036060830152612adf8188612a47565b9050612aee6080830187611db8565b612afb60a0830186611d8e565b612b0860c0830185611d8e565b612b1560e0830184612a80565b9998505050505050505050565b7f796f7520617265206e6f74204f776e6572000000000000000000000000000000600082015250565b6000612b58601183612366565b9150612b6382612b22565b602082019050919050565b60006020820190508181036000830152612b8781612b4b565b9050919050565b7f596f75722056616c75652069732046616c736500000000000000000000000000600082015250565b6000612bc4601383612366565b9150612bcf82612b8e565b602082019050919050565b60006020820190508181036000830152612bf381612bb7565b905091905056fea264697066735822122049b42285b41f08270808513b1650ace4a66b01a2571abdddc4cff5a24c244b8e64736f6c634300080e0033",
  "immutableReferences": {},
  "source": "// SPDX-License-Identifier: MIT\r\npragma solidity >=0.7.0 <8.0.0;\r\n\r\nimport \"@openzeppelin/contracts/utils/Counters.sol\";\r\n\r\ncontract NFTMarketPlace {\r\n    using Counters for Counters.Counter;\r\n    Counters.Counter private _itemsId;\r\n    address private __owner; // To Get Owner Contract\r\n    address private __contractAddress = address(this); // To Get Address Contract\r\n    \r\n    // This Function Returned Owner Adresss\r\n    function getAddressOwner() external view returns( address ) {\r\n        return __owner;\r\n    }\r\n\r\n    // This Function Returned Contract Adresss\r\n    function getContractAddress() external view returns( address ) {\r\n        return __contractAddress;\r\n    }\r\n\r\n    // This Function Returned Balance Contract Adresss\r\n    function getContractBalance() external view returns( uint256 ) {\r\n        return address(this).balance;\r\n    }\r\n\r\n    // This Function to the owner can withdraw Balance in Contract \r\n    function getContractWithdraw() external payable {\r\n        require(msg.sender == __owner ,\"you are not Owner\");\r\n        payable(msg.sender).transfer(address(this).balance);\r\n    }\r\n\r\n\r\n    // Get All Index Counter\r\n     function getAllCounter() external view returns(uint256) {\r\n        return _itemsId.current();\r\n    }\r\n\r\n    constructor() {\r\n        __owner = msg.sender;\r\n    }\r\n\r\n\r\n    struct _UploadNftStruct_ {\r\n        uint256 id;\r\n        string name;\r\n        string content;\r\n        string image;\r\n        uint256 price;\r\n        address owner;\r\n        address buyer;\r\n        bool locked;\r\n    }\r\n\r\n\r\n    event _UploadNftEvent_ (\r\n        uint256 id,\r\n        string name,\r\n        string content,\r\n        string image,\r\n        uint256 price,\r\n        address owner,\r\n        address buyer,\r\n        bool locked\r\n    );\r\n\r\n    mapping( uint256 => _UploadNftStruct_ ) private _mapUploading; // This Exist to Uploading and Get Data\r\n    mapping( string => bool ) private _mapCheckImage; // This to check your Image is Exist or no \r\n    mapping( address => uint256 [] ) private _mapCountUsers; // This Exist to Know how many you products Have\r\n    mapping( address => uint256 [] ) private _mapSold; // This Exist to Know how many product sold\r\n    mapping( uint256 => uint256 [] ) private _mapCountSoldProduct; // to Know how many sold it \r\n\r\n\r\n    // Function Uploading Data\r\n    function setUploadItemsNft(\r\n        string memory name_ , string memory content_ ,\r\n        uint256 price_ ,string memory image_ , bool locked_\r\n        ) external {\r\n        address __sender = msg.sender;\r\n        \r\n        require( __sender != address(0) , \"check your Address\" );\r\n        require( !_mapCheckImage[image_] , \"This Image Already Exists\" );\r\n        require( price_ > 1000 , \"No Money\" );\r\n\r\n\r\n        _itemsId.increment();\r\n        uint256 __id = _itemsId.current();\r\n\r\n\r\n         _mapUploading[__id] =\r\n         _UploadNftStruct_( __id , name_ , content_ , image_ , price_ , __sender, __sender ,locked_);\r\n         _mapCountUsers[msg.sender].push(__id);\r\n         _mapCheckImage[image_] = true;\r\n\r\n         emit _UploadNftEvent_( __id , name_ , content_ , image_ , price_ , __sender , __sender,locked_) ;\r\n    }\r\n\r\n\r\n    // Function Purchesed Product\r\n    function setPurchesedItem( uint256 id_ ) external payable {\r\n        _UploadNftStruct_ storage __data = _mapUploading[id_];\r\n        address __sender = msg.sender;\r\n\r\n        require( __sender != address(0) , \"NoAddress\" );\r\n        require( __sender != __data.owner , \"You are Owner\" );\r\n        require(id_ <= _itemsId.current() && id_ >= 0, \"check your Current Item\" );\r\n        require( msg.value == __data.price , \"Your Value is not Equal Price\" );\r\n        require(__data.locked == true, \"You Can't buy this Product\");\r\n\r\n        // To Get your Fees\r\n        uint256 __value = msg.value * 95/100;\r\n        payable(__data.owner).transfer(__value);\r\n\r\n        _mapCountSoldProduct[__data.id].push(__data.id);\r\n        __data.buyer = __sender;\r\n        __data.locked = false;\r\n\r\n        _mapCountUsers[__sender].push(__data.id);\r\n        _mapCountUsers[__data.owner].pop();\r\n        _mapSold[__data.owner].push(__data.id);\r\n    }\r\n\r\n\r\n\r\n    // Function to get Length Products you have\r\n    function getLengthOwnerData() external view returns( uint256 ) {\r\n        return _mapCountUsers[msg.sender].length;\r\n    }\r\n\r\n\r\n    // Function to get Length Products you sold\r\n    function getLengthSoldData() external view returns(uint256) {\r\n        return _mapSold[msg.sender].length;\r\n    }\r\n\r\n    // Function to get Length Products you sold\r\n    function getLengthSold(uint256 id_) external view returns(uint256) {\r\n        return _mapCountSoldProduct[id_].length;\r\n    }\r\n\r\n\r\n    // to Show Data in Home\r\n    function setLockedTrue( uint256 id_ ) external {\r\n        require( _mapUploading[id_].buyer == msg.sender,\"You are not Owner\");\r\n        require(_mapUploading[id_].locked != true,\"Your Value is True\");\r\n\r\n        _mapUploading[id_].locked = true;\r\n\r\n    }\r\n\r\n\r\n    // to Hide Data in Home\r\n    function setLockedFalse( uint256 id_ ) external {\r\n        require( _mapUploading[id_].buyer == msg.sender , \"You are not Owner\" );\r\n        require( _mapUploading[id_].locked == true , \"Your Value is False\" );\r\n\r\n        _mapUploading[id_].locked = false;\r\n\r\n    }\r\n\r\n\r\n    // Function Get all Products By Index\r\n    function getAllItemByIndex(uint256 index_) external view returns(_UploadNftStruct_ memory) {\r\n        require(index_ <= _itemsId.current()&& index_ >= 0,\"check your Current Item\");\r\n        return _mapUploading[index_];\r\n    }\r\n\r\n\r\n    // Function to get All Products \r\n    function getAllItems() external view returns(_UploadNftStruct_ [] memory) {\r\n        uint256 _totalItemCount = _itemsId.current();\r\n        uint256 _myCurrentIndex = 0;\r\n\r\n        _UploadNftStruct_[] memory _nftItems = new _UploadNftStruct_[](_mapCountUsers[msg.sender].length);\r\n\r\n                for(uint256 i = 0; i < _totalItemCount; i++) {\r\n                    if( _mapUploading[i+1].locked == true ) {\r\n                        _UploadNftStruct_ storage _currentItem = _mapUploading[i+1];\r\n                        _nftItems[_myCurrentIndex] = _currentItem;\r\n                        _myCurrentIndex += 1;\r\n                    }\r\n                }\r\n        return _nftItems;\r\n    }\r\n    \r\n\r\n    // Function to get All your Products Onley\r\n    function getAllYourItems() external view returns(_UploadNftStruct_ [] memory) {\r\n        uint256 _totalItemCount = _itemsId.current();\r\n        uint256 _myCurrentIndex = 0;\r\n\r\n        _UploadNftStruct_[] memory _nftItems = new _UploadNftStruct_[](_mapCountUsers[msg.sender].length);\r\n\r\n                for(uint256 i = 0; i < _totalItemCount; i++) {\r\n                    if( _mapUploading[i+1].buyer == msg.sender ) {\r\n                        _UploadNftStruct_ storage _currentItem = _mapUploading[i+1];\r\n                        _nftItems[_myCurrentIndex] = _currentItem;\r\n                        _myCurrentIndex += 1;\r\n                    }\r\n                }\r\n        return _nftItems;\r\n    }\r\n    \r\n}",
  "sourcePath": "C:\\bc_nft_app\\contracts\\NFTMarketPlace.sol",
  "compiler": {
    "name": "solc",
    "version": "0.8.14+commit.80d49f37.Emscripten.clang"
  },
  "schemaVersion": "3.4.7",
  "updatedAt": "2022-07-25T14:28:28.022Z",
  "networkType": "ethereum",
  "devdoc": {
    "kind": "dev",
    "methods": {},
    "version": 1
  },
  "userdoc": {
    "kind": "user",
    "methods": {},
    "version": 1
  }
}